:100000000C9458000C9480000C9480000C94800098
:100010000C9480000C9480000C9480000C94800060
:100020000C9480000C9480000C9480000C94800050
:100030000C9480000C9480000C9480000C94800040
:100040000C94B9010C9480000C9429020C940302C6
:100050000C9480000C9480000C9480000C94800020
:100060000C9480000C948000000000002300260007
:10007000290004040404040404040202020202022B
:10008000030303030303010204081020408001025C
:1000900004081020010204081020000000080002DB
:1000A00001000003040700000000000000005B02E4
:1000B00011241FBECFEFD8E0DEBFCDBF11E0A0E01E
:1000C000B1E0E4E5F9E002C005900D92A631B10778
:1000D000D9F721E0A6E1B1E001C01D92A93DB20728
:1000E000E1F710E0C8E5D0E004C02197FE010E94CE
:1000F0009D04C735D107C9F70E94A2020C94A80439
:100100000C9400003FB7F89480912601909127014C
:10011000A0912801B091290126B5A89B05C02F3FC9
:1001200019F00196A11DB11D3FBFBA2FA92F982F1D
:100130008827820F911DA11DB11DBC01CD0142E098
:10014000660F771F881F991F4A95D1F70895CF92A0
:10015000DF92EF92FF920F931F93CF93DF936C0187
:100160007A018B01C0E0D0E0CE15DF0581F0D80127
:100170006D918D01D601ED91FC910190F081E02D02
:10018000C6010995892B11F02196EECF7E01C7019A
:10019000DF91CF911F910F91FF90EF90DF90CF9063
:1001A0000895089580E090E00895FC01538D448DFA
:1001B000252F30E0842F90E0821B930B541710F012
:1001C000CF96089501970895FC01918D828D98171F
:1001D00061F0828DDF01A80FB11D5D968C91928D2B
:1001E0009F5F9F73928F90E008958FEF9FEF089528
:1001F000FC01918D828D981731F0828DE80FF11DF1
:10020000858D90E008958FEF9FEF0895FC01918D0B
:10021000228D892F90E0805C9F4F821B91098F7304
:10022000992708958AE291E00E94060121E0892B36
:1002300009F420E0822F0895FC01848DDF01A80FCE
:10024000B11DA35ABF4F2C91848D90E001968F73FE
:100250009927848FA689B7892C93A089B1898C911D
:10026000837080648C93938D848D981306C002886C
:10027000F389E02D80818F7D80830895EF92FF9236
:100280000F931F93CF93DF93EC0181E0888F9B8DB9
:100290008C8D981305C0E889F989808185FD26C079
:1002A000F62E0B8D10E00F5F1F4F0F731127E02EFE
:1002B0008C8DE8120CC00FB607FCFACFE889F989DB
:1002C000808185FFF5CFCE010E941C01F1CF8B8D7F
:1002D000FE01E80FF11DE35AFF4FF0829FB7F8943B
:1002E0000B8FEA89FB89808180620AC09FB7F894EE
:1002F000EE89FF896083E889F98980818370806451
:1003000080839FBF81E090E0DF91CF911F910F919B
:10031000FF90EF900895CF93DF93EC01888D8823B1
:10032000C9F0EA89FB89808185FD05C0A889B98962
:100330008C9186FD0FC00FB607FCF5CF808185FF3D
:10034000F2CFA889B9898C9185FFEDCFCE010E94AB
:100350001C01E7CFDF91CF91089580E090E0892BD9
:1003600029F00E94120181110C94000008950E944E
:10037000A3041F920F920FB60F9211242F933F9355
:100380008F939F93AF93BF9380912201909123010C
:10039000A0912401B09125013091210123E0230F88
:1003A0002D3720F40196A11DB11D05C026E8230FAD
:1003B0000296A11DB11D20932101809322019093EB
:1003C0002301A0932401B0932501809126019091EF
:1003D0002701A0912801B09129010196A11DB11D0D
:1003E0008093260190932701A0932801B0932901BF
:1003F000BF91AF919F918F913F912F910F900FBE21
:100400000F901F9018951F920F920FB60F92112404
:100410002F933F934F935F936F937F938F939F930C
:10042000AF93BF93EF93FF938AE291E00E941C0188
:10043000FF91EF91BF91AF919F918F917F916F91BC
:100440005F914F913F912F910F900FBE0F901F9092
:1004500018951F920F920FB60F9211242F938F931E
:100460009F93EF93FF93E0913A01F0913B018081DC
:10047000E0914001F091410182FD12C09081809194
:1004800043018F5F8F7320914401821751F0E091F7
:100490004301F0E0E65DFE4F958F8093430101C07C
:1004A0008081FF91EF919F918F912F910F900FBEBF
:1004B0000F901F901895EAE2F1E01382128288EE05
:1004C00093E0A0E0B0E084839583A683B78324E023
:1004D00031E03183208325EC30E03587248724EC1C
:1004E00030E03787268720EC30E0318B208B21EC01
:1004F00030E0338B228B22EC30E0358B248B26ECE2
:1005000030E0378B268B118E128E138E148E26E0E0
:100510002093D701E7ECF1E048EB5BE060E070E0AE
:10052000448355836683778380879187A287B387C7
:1005300085E08083138212821182148615861686C6
:1005400017860895CF93DF93CDB7DEB7A1970FB687
:10055000F894DEBF0FBECDBF789484B5826084BDB1
:1005600084B5816084BD85B5826085BD85B58160B7
:1005700085BD80916E00816080936E001092810035
:1005800080918100826080938100809181008160F0
:1005900080938100809180008160809380008091B1
:1005A000B10084608093B1008091B000816080933D
:1005B000B00080917A00846080937A0080917A0004
:1005C000826080937A0080917A00816080937A00C3
:1005D00080917A00806880937A001092C100E09147
:1005E0003A01F0913B0182E08083E0913601F09185
:1005F00037011082E0913801F09139018FEC80834E
:1006000010924201E0913E01F0913F0186E080832B
:10061000E0913C01F0913D01808180618083E09117
:100620003C01F0913D01808188608083E0913C0134
:10063000F0913D01808180688083E0913C01F091E0
:100640003D0180818F7D80831092200130E2232E36
:1006500031E0332EE6E1F1E011922E163F06E1F78C
:100660002AE0422E512C612C712C809120016AE0ED
:100670000E944704892F90E0FC01EA5EFE4F29E1C9
:10068000208301966AE070E00E9453048093200169
:10069000E6E1F1E0A12CB12C8191A80EB11C2E163F
:1006A0003F06D1F78091C70190E0FC01E656FF4F6D
:1006B0003491FC01EA57FF4F2491FC01EE58FF4FA3
:1006C000E491EE23C9F1332339F1333091F038F45A
:1006D0003130A9F0323001F584B58F7D12C037304A
:1006E00091F03830A1F03430B9F4809180008F7DE2
:1006F00003C0809180008F77809380000DC084B507
:100700008F7784BD09C08091B0008F7703C080913E
:10071000B0008F7D8093B000F0E0EE0FFF1FE8592E
:10072000FF4FA591B491EC912E2341E030E009F404
:1007300040E0842F932F02C080E090E0282F2170AA
:100740003091C801231303C0892BB1F477C03FB7A0
:10075000F8948091220190912301A0912401B091FD
:1007600025013FBF8093D3019093D401A093D5017D
:10077000B093D6012093C8018FB7F894C09022019E
:10078000D0902301E0902401F09025018FBF80914B
:10079000D3019091D401A091D501B091D601C81A8E
:1007A000D90AEA0AFB0A19A2A70196018E010F5D78
:1007B0001F4FCA01B901A30192010E946704605D45
:1007C000F80162938F01211531054105510589F723
:1007D000309761F001900020E9F73197AF01401B9D
:1007E000510BB8018AE291E00E94A70042E050E07C
:1007F00062E171E08AE291E00E94A7008091CB0162
:100800009091CC01A091CD01B091CE018C159D05A8
:10081000AE05BF0598F4C5016AE070E00E9453047C
:100820007093CA016093C9011092C8011092D3015C
:100830001092D4011092D5011092D6010E9482002C
:100840004B015C0184E6C82ED12CE12CF12C0E94D6
:100850008200DC01CB0188199909AA09BB09883EED
:100860009340A105B10598F3F1E0CF1AD108E10852
:10087000F10828EE820E23E0921EA11CB11CC114C7
:10088000D104E104F10419F70E94AD01EECE991BE9
:1008900079E004C0991F961708F0961B881F7A9577
:1008A000C9F78095089597FB072E16F4009407D09A
:1008B00077FD09D00E94890407FC05D03EF490958D
:1008C00081959F4F0895709561957F4F0895A1E29E
:1008D0001A2EAA1BBB1BFD010DC0AA1FBB1FEE1FBA
:1008E000FF1FA217B307E407F50720F0A21BB30B05
:1008F000E40BF50B661F771F881F991F1A9469F781
:1009000060957095809590959B01AC01BD01CF01DC
:100910000895AA1BBB1B51E107C0AA1FBB1FA61746
:10092000B70710F0A61BB70B881F991F5A95A9F798
:1009300080959095BC01CD010895EE0FFF1F0590A5
:10094000F491E02D099481E090E0F8940C94A804CF
:04095000F894FFCF49
:10095400000000003E01A700D5008B010601E40061
:06096400F8000D0A00007E
:107E0000112484B714BE81FFF0D085E080938100F7
:107E100082E08093C00088E18093C10086E0809377
:107E2000C20080E18093C4008EE0C9D0259A86E02C
:107E300020E33CEF91E0309385002093840096BBD3
:107E4000B09BFECF1D9AA8958150A9F7CC24DD24C4
:107E500088248394B5E0AB2EA1E19A2EF3E0BF2EE7
:107E6000A2D0813461F49FD0082FAFD0023811F036
:107E7000013811F484E001C083E08DD089C08234E0
:107E800011F484E103C0853419F485E0A6D080C0E4
:107E9000853579F488D0E82EFF2485D0082F10E0AE
:107EA000102F00270E291F29000F111F8ED06801E7
:107EB0006FC0863521F484E090D080E0DECF843638
:107EC00009F040C070D06FD0082F6DD080E0C81688
:107ED00080E7D80618F4F601B7BEE895C0E0D1E017
:107EE00062D089930C17E1F7F0E0CF16F0E7DF06D8
:107EF00018F0F601B7BEE89568D007B600FCFDCFD4
:107F0000A601A0E0B1E02C9130E011968C91119780
:107F100090E0982F8827822B932B1296FA010C0160
:107F200087BEE89511244E5F5F4FF1E0A038BF0790
:107F300051F7F601A7BEE89507B600FCFDCF97BE46
:107F4000E89526C08437B1F42ED02DD0F82E2BD052
:107F50003CD0F601EF2C8F010F5F1F4F84911BD097
:107F6000EA94F801C1F70894C11CD11CFA94CF0C13
:107F7000D11C0EC0853739F428D08EE10CD085E9AC
:107F80000AD08FE07ACF813511F488E018D01DD067
:107F900080E101D065CF982F8091C00085FFFCCF94
:107FA0009093C60008958091C00087FFFCCF809118
:107FB000C00084FD01C0A8958091C6000895E0E648
:107FC000F0E098E1908380830895EDDF803219F02E
:107FD00088E0F5DFFFCF84E1DECF1F93182FE3DFCA
:107FE0001150E9F7F2DF1F91089580E0E8DFEE27F6
:047FF000FF270994CA
:027FFE00040479
:0400000300007E007B
:00000001FF
